:020000040800F2
:10000000F00C002089150008F9150008F915000802
:10001000F9150008F9150008F9150008000000009E
:10002000000000000000000000000000F9150008BA
:10003000F915000800000000F9150008F91500087E
:10004000F9150008F9150008F9150008F915000858
:10005000F9150008F9150008F9150008F915000848
:10006000F9150008F9150008F9150008F915000838
:10007000F9150008F9150008F9150008F915000828
:10008000F9150008F9150008F9150008F915000818
:10009000F9150008F9150008F9150008F915000808
:1000A000F9150008F9150008F9150008F9150008F8
:1000B000F9150008F9150008F9150008F9150008E8
:1000C000F9150008F9150008F9150008F9150008D8
:1000D000F9150008F9150008F9150008F9150008C8
:1000E000F9150008F9150008F9150008F9150008B8
:1000F000F9150008F9150008F9150008F9150008A8
:10010000F9150008F9150008F9150008F915000897
:10011000F9150008F9150008F9150008F915000887
:10012000F9150008F9150008F9150008F915000877
:100130005FF808F180B582B002AF4FF00003009382
:100140004FF078004FF0780148F20442C0F6000208
:100150004FF6FF7301F06CF84FF0000300934FF07F
:100160003C004FF0960148F21042C0F600024FF6F4
:10017000333301F05DF842F2107002F0CBF9BD4666
:1001800080BD00BF80B586B002AF4FF0000000F028
:10019000D3FE4FF00003FB604FF0000300934FF0DD
:1001A00078004FF0780148F22C42C0F600024FF67A
:1001B000333301F03DF84FF0000300934FF03C0063
:1001C0004FF0960148F23C42C0F600024FF6FF7332
:1001D00001F02EF84FF00003BB600DE002F0A6F82E
:1001E0000346FA68D318FB604FF00A0002F092F958
:1001F000BB6803F10103BB60BA6840F2F3139A4293
:10020000ECD907F10403184648F25C41C0F600013E
:10021000FA6803F0AFFA07F104034FF0000200920E
:100220004FF078004FF0B4011A464FF6333300F028
:10023000FFFF4FF47A7002F06DF94FF0000000F00C
:100240007BFEFB68184607F11007BD4680BD00BF66
:1002500090B585B000AF786040F20003C2F20003B1
:100260001B88184602F00AFF0346BB604FF00003EC
:10027000FB6018E0BA68FB68D41803F045FA024640
:100280004FF00303C8F200031340002B05DA03F11B
:10029000FF3363F0030303F10103DBB22370FB6858
:1002A00003F10103FB6040F20003C2F200031B886C
:1002B0001A46FB689A42DDD8BB68184607F1140756
:1002C000BD4690BD80B586B002AF78600B467B809E
:1002D0004FF0000000F030FE4FF00003FB6062E0E2
:1002E0007A68FB68D3181B78002B0FD14FF00003FE
:1002F00000934FF08C004FF0780148F26042C0F656
:1003000000024FF6333300F093FF40E07A68FB6859
:10031000D3181B78012B0FD14FF0000300934FF03F
:100320008C004FF0780148F26442C0F600024FF6AC
:10033000333300F07DFF2AE07A68FB68D3181B781E
:10034000022B0FD14FF0000300934FF08C004FF0C1
:10035000780148F26C42C0F600024FF6333300F0E9
:1003600067FF14E07A68FB68D3181B78032B0ED163
:100370004FF0000300934FF08C004FF0780148F2EB
:100380007442C0F600024FF6333300F051FF7B8811
:10039000184602F0BFF84FF0000000F0CDFDFB68FA
:1003A00003F10103FB6040F20003C2F200031B886B
:1003B0001A46FB689A4293D807F11007BD4680BDE4
:1003C00080B586B002AF78600B467B8000F0E2F922
:1003D00040F20003C2F200031B88184602F04EFEF2
:1003E0000346BB604FF00003FB6009E0BA68FB689E
:1003F000D3184FF004021A70FB6803F10103FB608D
:1004000040F20003C2F200031B881A46FB689A42BE
:10041000ECD84FF00003FB604FF00003FB607AE084
:100420007B88184602F0ACF801F0C6FF034603F1E2
:10043000FF33052B5ED801A252F823F055040008C3
:100440007D040008A5040008F5040008F504000870
:10045000CD0400084FF6333300934FF0F1004FF016
:10046000510140F20D124FF06D0300F01DFFBA680C
:10047000FB68D3184FF000021A703BE04FF633339D
:1004800000934FF0F1004FF08D0140F20D124FF04C
:10049000A90300F009FFBA68FB68D3184FF0010206
:1004A0001A7027E04FF6333300934FF0D3004FF02C
:1004B0006F014FF0EF024FF08B0300F0F5FEBA68CA
:1004C000FB68D3184FF002021A7013E04FF6333373
:1004D000009340F20F104FF06F0140F22B124FF0DB
:1004E0008B0300F0E1FEBA68FB68D3184FF00302FB
:1004F0001A7000BF02F076F80346012B94D14FF03A
:10050000000000F019FD00F045F902F05FF8FB680B
:1005100003F10103FB6040F20003C2F200031B88F9
:100520001A46FB689A423FF67BAFBB68184607F154
:100530001007BD4680BD00BF80B485B000AF7860B5
:1005400039604FF00003FB601DE07A68FB68D31848
:100550001A783968FB68CB181B789A4202D04FF0A2
:1005600000031BE040F68C03C2F200031B8803F17A
:1005700001039AB240F68C03C2F200031A80FB68B2
:1005800003F10103FB6040F20003C2F200031B8889
:100590001A46FB689A42D8D84FF00103184607F173
:1005A0001407BD4680BC704780B586B002AF0346D5
:1005B000FB804FF0000000F0BFFCFB8807F10C024D
:1005C000104648F25C41C0F600011A4603F0D2F82A
:1005D00040F68C03C2F200031B8807F108021046A4
:1005E00048F25C41C0F600011A4603F0C3F84FF030
:1005F000000300934FF078004FF0500148F27C4226
:10060000C0F600024FF4784300F012FE4FF00003F2
:1006100000934FF078004FF0640148F28842C0F632
:1006200000024FF6FF7300F003FE4FF0000300934B
:100630004FF078004FF0780148F29442C0F6000283
:100640004FF6FF7300F0F4FD07F10C034FF00002CA
:1006500000924FF078004FF08C011A464FF633337A
:1006600000F0E6FD4FF0000300934FF078004FF0EC
:10067000A00148F2A442C0F600024FF6FF7300F05A
:10068000D7FD07F108034FF0000200924FF0780009
:100690004FF0B4011A464FF4784300F0C9FD42F21E
:1006A000107001F037FF40F68C03C2F200034FF0E8
:1006B00000021A8007F11007BD4680BD80B586B0E4
:1006C00002AF0346FB804FF0000000F035FCFB88D2
:1006D00007F10C02104648F25C41C0F600011A46D0
:1006E00003F048F84FF0000300934FF078004FF00C
:1006F000500148F2BC42C0F600024FF4FC6300F027
:1007000097FD4FF0000300934FF078004FF0640125
:1007100048F2C842C0F600024FF6FF7300F088FDB1
:100720004FF0000300934FF078004FF0780148F24B
:100730009442C0F600024FF6FF7300F079FD07F116
:100740000C034FF0000200924FF078004FF08C0144
:100750001A464FF6333300F06BFD42F2107001F091
:10076000D9FE40F68C03C2F200034FF000021A805B
:1007700040F20003C2F200031B8803F101039AB2A6
:1007800040F20003C2F200031A8007F11007BD46D1
:1007900080BD00BF80B582B002AF4FF00003009370
:1007A0004FF00A004FF06E0148F2D442C0F600024A
:1007B0004FF6FF7300F03CFD4FF4FC6300934FF0E5
:1007C000D2004FF050014FF496724FF0500300F0FA
:1007D00001FC4FF4FC6300934FF0D2004FF06E0128
:1007E0004FF496724FF06E0300F0F4FB4FF4FC638D
:1007F00000934FF0D2004FF08C014FF496724FF0FF
:100800008C0300F0E7FB4FF4FC6300934FF0D20041
:100810004FF0AA014FF496724FF0AA0300F0DAFBF2
:100820004FF4FC6300934FF0D2004FF050014FF0B3
:10083000D2024FF0AA0300F0CDFB4FF4FC6300930B
:100840004FF0F0004FF050014FF0F0024FF0AA03CC
:1008500000F0C0FB4FF4FC6300934FF487704FF03F
:1008600050014FF487724FF0AA0300F0B3FB4FF42E
:10087000FC6300934FF496704FF050014FF4967262
:100880004FF0AA0300F0A6FBBD4680BD80B582B044
:1008900000AF4FF480704FF0010101F02DFA40F2EB
:1008A000E1104FF0010101F051FA4CF23373BB80BB
:1008B0004FF00303BB714FF01803FB7107F1040302
:1008C0004FF4A050C4F20100194600F06BFF4FF640
:1008D0008073BB8007F104034FF4C050C4F20100E1
:1008E000194600F05FFF4FF06003BB8007F104037F
:1008F0004FF4C050C4F20100194600F053FF4FF00E
:100900000103BB8007F104034FF4E050C4F201007F
:10091000194600F047FF4FF48053BB8007F10403F2
:100920004FF40050C4F20100194600F03BFF07F1FC
:100930000807BD4680BD00BF80B596B000AF4FF040
:1009400005033B604FF000037B604FF00503BB6085
:100950004FF00003FB604FF000033B614FF00003DA
:100960007B614FF00003BB614FF00603FB614FF06A
:1009700000033B624FF000037B624FF01003BB6249
:100980004FF00003FB624FF000037B634FF0000366
:10099000BB634FF00003FB634FF480533B644FF0A5
:1009A00000037B644FF000033B634FF00003BB6424
:1009B0004FF00003FB643B463B6507F11C03184600
:1009C00000F01EFE4FF001033B604FF000037B6020
:1009D0004FF00103BB604FF00003FB604FF00003DA
:1009E0003B614FF000037B614FF00003BB613B466E
:1009F0007B6507F11C03184600F002FE4FF006006D
:100A00004FF0010100F0A4FE07F15807BD4680BD7C
:100A100080B500AFFFF73AFFFFF78EFF80BD00BF44
:100A200080B483B000AF0346FB804FF0D843FA8810
:100A30001A8007F10C07BD4680BC704780B483B0B4
:100A400000AF0346FB804FF00203C6F60043FA886E
:100A50001A8007F10C07BD4680BC704780B582B094
:100A600000AF02460B46FA71BB71BB79002B0DD06B
:100A700040F69403C2F200031A78FB791343DAB20A
:100A800040F69403C2F200031A7011E0FB796FEA9A
:100A90000303DAB240F69403C2F200031B78DBB220
:100AA0001340DBB2DAB240F69403C2F200031A70CC
:100AB0004FF0BA00FFF7B4FF40F69403C2F2000310
:100AC0001B781846FFF7BAFF07F10807BD4680BD3F
:100AD00080B584B000AF0346FB714FF00003FB7399
:100AE00024E0FB795BB2002B06DA4FF004004FF0F4
:100AF0000101FFF7B3FF05E04FF004004FF00001E4
:100B0000FFF7ACFF4FF002004FF00001FFF7A6FF28
:100B10004FF002004FF00101FFF7A0FFFB794FEA11
:100B20004303FB71FB7B03F10103FB73FB7B072B8F
:100B3000D7D907F11007BD4680BD00BF80B582B090
:100B400000AF02460B46FA71BB804FF001004FF038
:100B50000001FFF783FFFB794FEA83239BB243F445
:100B600000739AB2BB8813439BB2BB80BB88DBB2D5
:100B70004FEA2323DBB21846FFF7AAFFBB88DBB29C
:100B80001846FFF7A5FF4FF001004FF00101FFF7F6
:100B900065FF07F10807BD4680BD00BF80B500AF07
:100BA000FFF736FF4FF0E200FFF73AFF4FF0230068
:100BB000FFF744FF4FF00200FFF740FF4FF05400F3
:100BC000FFF73CFF4FF0E000FFF72AFF4FF0010076
:100BD000FFF734FF4FF00A0001F09CFC4FF0E000FB
:100BE000FFF71EFF4FF00300FFF728FF4FF0010053
:100BF000FFF716FF4FF00A0001F08CFC4FF0E60003
:100C0000FFF70EFF4FF00000FFF718FF4FF0DD0079
:100C1000FFF714FF4FF0DC00FFF710FF4FF0B000BC
:100C2000FFF7FEFE4FF02000FFF708FF4FF0000037
:100C3000FFF704FF4FF00100FFF700FF4FF03F0008
:100C4000FFF7FCFE4FF00000FFF7F8FE4FF0EF005B
:100C5000FFF7F4FE4FF00000FFF7F0FE4FF0B40096
:100C6000FFF7DEFE4FF00100FFF7E8FE4FF4CD7016
:100C7000FFF7E4FE4FF00000FFF7E0FE4FF0460004
:100C8000FFF7DCFE4FF01300FFF7D8FE4FF0000037
:100C9000FFF7D4FE4FF00000FFF7D0FE4FF000004A
:100CA000FFF7CCFE4FF0B600FFF7BAFE4FF00100A1
:100CB000FFF7C4FE40F20110FFF7C0FE4FF0000046
:100CC000FFF7BCFE4FF00D00FFF7B8FE4FF001003C
:100CD000FFF7B4FE4FF00000FFF7B0FE4FF000004A
:100CE000FFF7ACFE4FF0F000FFF79AFE4FF0030065
:100CF000FFF7A4FE4FF0B800FFF792FE4FF00F0091
:100D0000FFF79CFE4FF00100FFF798FE4FF0010047
:100D10004FF00101FFF7A2FE4FF002004FF001017A
:100D2000FFF79CFE4FF004004FF00101FFF796FE25
:100D30004FF008004FF00101FFF790FE4FF0080060
:100D40004FF00001FFF78AFE4FF0010001F0E2FBD7
:100D50004FF008004FF00101FFF780FE4FF0000058
:100D60004FF00701FFF7EAFE4FF001004FF00001DE
:100D7000FFF7E4FE4FF002004FF00301FFF7DEFE45
:100D80004FF003004FF0CC01FFF7D8FE4FF0040006
:100D90004FF04601FFF7D2FE4FF005004FF00D0176
:100DA000FFF7CCFE4FF006004FF00001FFF7C6FE44
:100DB0004FF007004FF00001FFF7C0FE4FF00800B2
:100DC0004FF00801FFF7BAFE4FF009004FF0400165
:100DD000FFF7B4FE4FF00A004FF08801FFF7AEFEB8
:100DE0004FF00B004FF08801FFF7A8FE4FF00C000A
:100DF0004FF03001FFF7A2FE4FF00D004FF0200141
:100E0000FFF79CFE4FF00E004FF06A01FFF796FED1
:100E10004FF00F004FF0A401FFF790FE4FF01000CD
:100E20004FF00401FFF78AFE4FF011004FF024014C
:100E3000FFF784FE4FF012004FF02401FFF77EFE13
:100E40004FF01E004FF00001FFF778FE4FF020003A
:100E50004FF00001FFF772FE4FF02900FFF7E0FDB1
:100E60004FF0FF0000F042F880BD00BF80B582B0B7
:100E700000AFF880B9807A803B804FF02A00FFF7FE
:100E8000CFFDFB884FEA13239BB21846FFF7D6FD30
:100E9000FB881846FFF7D2FD7B884FEA13239BB2ED
:100EA0001846FFF7CBFD7B881846FFF7C7FD4FF0CC
:100EB0002B00FFF7B5FDBB884FEA13239BB2184602
:100EC000FFF7BCFDBB881846FFF7B8FD3B884FEA2B
:100ED00013239BB21846FFF7B1FD3B881846FFF776
:100EE000ADFD07F10807BD4680BD00BF80B582B0EB
:100EF00000AF0346FB714FF0BE00FFF791FD4FF0CE
:100F00000E00FFF79BFDFB799BB21846FFF796FD9D
:100F10004FF00100FFF792FD4FF00000FFF78EFD4C
:100F20004FF00000FFF78AFD4FF00000FFF786FD4D
:100F300007F10807BD4680BD80B584B000AF034609
:100F4000FB804FF000004FF0000140F23F124FF0E5
:100F5000EF03FFF78BFF4FF02C00FFF761FD4FF021
:100F60000003FB6007E0FB881846FFF767FDFB689E
:100F700003F10103FB60FA6842F6FF33C0F201039C
:100F80009A42F0D907F11007BD4680BD80B582B006
:100F900000AF13460246FA800A46BA807B80FB887F
:100FA000B3F5A07F11D8BB88F02B0ED8F888B9888C
:100FB000FA88BB88FFF75AFF4FF02C00FFF730FD8F
:100FC0007B881846FFF73AFD00E000BF07F10807ED
:100FD000BD4680BD80B584B000AFF880B9807A800E
:100FE0003B80FA887B889A4205D97B88FB81FB8805
:100FF0007B80FB89FB80BA883B889A4205D93B8875
:10100000FB81BB883B80FB89BB807A88FB88D31A35
:101010009BB2BB813A88BB88D31A9BB27B81B7F95C
:101020000C30002B10D1F988BA883B8B084611464A
:101030001A46FFF7ABFFBB8803F10103BB803A8878
:10104000BB889A42EFD299E0B7F90A30002B10D151
:10105000F988BA883B8B084611461A46FFF796FF77
:10106000FB8803F10103FB807A88FB889A42EFD268
:1010700084E0B7F90C20B7F90A309A423FDD7B894A
:101080004FEA43039AB2BB89D31A9BB2FB8129E092
:10109000F988BA883B8B084611461A46FFF776FF57
:1010A000FB8803F10103FB80B7F90E30002B11DD43
:1010B000BB8803F10103BB80B7F90A20B7F90C30F4
:1010C000D31A9BB24FEA43039AB2FB89D3189BB25F
:1010D000FB8107E07B894FEA43039AB2FB89D3186F
:1010E0009BB2FB81FA887B889A42D1D1F988BA8871
:1010F0003B8B084611461A46FFF748FF3EE0BB8986
:101100004FEA43039AB27B89D31A9BB2FB8129E051
:10111000F988BA883B8B084611461A46FFF736FF16
:10112000BB8803F10103BB80B7F90E30002B11DD42
:10113000FB8803F10103FB80B7F90A20B7F90C30F3
:10114000D31A9BB24FEA43039AB2FB89D3189BB2DE
:10115000FB8107E07B894FEA43039AB2FB89D318EE
:101160009BB2FB81BA883B889A42D1D1F988BA8870
:101170003B8B084611461A46FFF708FF07F1100798
:10118000BD4680BD80B588B000AFF880B980FA70E8
:101190003B8007F10802FB781046194600F084FCFA
:1011A0004FF00003FB833CE0FB8B07F12002D318D8
:1011B00013F8183CFB764FF00003BB832AE0FA7E5D
:1011C000BB8BC3F1070342FA03F303F00103002BC7
:1011D0000ED0FA88BB8BD31899B2BA88FB8BD31880
:1011E0009AB23B88084611461A46FFF7CFFE0DE03B
:1011F000FA88BB8BD31899B2BA88FB8BD3189AB2F2
:101200003B8D084611461A46FFF7C0FEBB8B03F123
:101210000103BB83BB8B072BD1D9FB8B03F10103EC
:10122000FB83FB8B0F2BBFD907F12007BD4680BD89
:1012300090B589B002AFBA600246FA810A46BA8117
:10124000FB80BB681B78FB75BB6803F10103BB60C7
:10125000F889B989FA7DFB883C8D0094FFF792FFED
:10126000FA8940F237139A4204D8FB8903F1080344
:10127000FB8110E0BB89DF2B07D84FF00003FB8117
:10128000BB8903F11003BB8105E04FF00003FB8134
:101290004FF00003BB81BB681B78002BD1D107F155
:1012A0001C07BD4690BD00BF80B582B000AFF8807E
:1012B000B9807A803B80F888B9887A883B88FFF7C4
:1012C000D5FD4FF02C00FFF7ABFB40F69003C2F2C8
:1012D00000034FF000021A600FE03B8A1846FFF748
:1012E000ADFB40F69003C2F200031B6803F101025C
:1012F00040F69003C2F200031A607A88FB88D31A82
:1013000003F101033988BA888A1A02F1010202FB4B
:1013100003F240F69003C2F200031B689A42DCDC41
:1013200007F10807BD4680BD80B500AF4FF480537C
:10133000C4F202034FF48052C4F20202126842F077
:1013400001021A604FF48052C4F202024FF480533B
:10135000C4F2020359684FF00003CFF6FF030B40BD
:1013600053604FF48053C4F202034FF48052C4F22E
:101370000202126822F0847222F480321A604FF462
:101380008053C4F202034FF48052C4F20202126886
:1013900022F480221A604FF48053C4F202034FF407
:1013A0008052C4F20202526822F4FE025A604FF4E4
:1013B0008053C4F202034FF41F029A6000F008F851
:1013C0004FF46D43CEF200034FF000629A6080BD8F
:1013D00080B500AF00F002F880BD00BF80B483B0DC
:1013E00000AF4FF000037B604FF000033B604FF411
:1013F0008053C4F202034FF48052C4F20202126816
:1014000042F480321A604FF48053C4F202031B6826
:1014100003F400333B607B6803F101037B603B68AE
:10142000002B03D17B68B3F5A06FECD14FF4805350
:10143000C4F202031B6803F40033002B03D04FF007
:1014400001033B6002E04FF000033B603B68012B6F
:1014500040F094804FF40053C4F202034FF4005262
:10146000C4F20202126842F010021A604FF40053F4
:10147000C4F202034FF40052C4F20202126822F0D6
:1014800003021A604FF40053C4F202034FF40052F7
:10149000C4F20202126842F002021A604FF4805352
:1014A000C4F202034FF48052C4F2020252685A603E
:1014B0004FF48053C4F202034FF48052C4F202028C
:1014C00052685A604FF48053C4F202034FF48052C2
:1014D000C4F20202526842F480625A604FF48053B0
:1014E000C4F202034FF48052C4F20202526822F4A2
:1014F0007C125A604FF48053C4F202034FF48052BE
:10150000C4F20202526842F4E8125A604FF4805367
:10151000C4F202034FF48052C4F20202126842F095
:1015200080721A6000BF4FF48053C4F202031B683C
:1015300003F00073002BF6D04FF48053C4F2020383
:101540004FF48052C4F20202526822F003025A6041
:101550004FF48053C4F202034FF48052C4F20202EB
:10156000526842F002025A6000BF4FF48053C4F246
:1015700002035B6803F00C03082BF6D107F10C079C
:10158000BD4680BC704700BF80B582B000AF48F652
:101590006043C0F600037B6040F20003C2F2000328
:1015A0003B600BE07B681A683B681A603B6803F19C
:1015B00004033B607B6803F104037B603A6840F6F8
:1015C0008C03C2F200039A42ECD3094809494FF058
:1015D00000028842B8BF40F8042BFFF6FAAFFFF7CD
:1015E000A3FE00F0D5F907F10807BD4680BD000055
:1015F0008C080020F008002080B400AFFEE700BF98
:1016000080B483B000AF78604FF020437A681268EE
:10161000796848687968896808437968C9680843BF
:10162000796809690843796849690843796889696B
:1016300008437968C96908437968096A0843796881
:10164000496A08437968896A08437968C96A08431E
:101650007968096B014343F822107B689B68082B6B
:101660000DD14FF020437A6812684FF0204178681E
:10167000006851F8201041F0400143F822104FF06B
:1016800020437A68126802F101027968496B0868A0
:101690007968496B49684FEA011108437968496BD9
:1016A00089684FEA012108437968496BC9684FEAA4
:1016B000014108437968496B09694FEA01510843C0
:1016C0007968496B49694FEA016108437968496B58
:1016D0008969014343F822107B68DB6AB3F5804FC8
:1016E00027D14FF48273CAF200037A6812687968CE
:1016F000896B08687968896B49684FEA011108436A
:101700007968896B89684FEA012108437968896B98
:1017100009694FEA015108437968896B49694FEAC1
:10172000016108437968896B8969014343F8221094
:1017300009E04FF48273CAF200037A6812686FF00E
:10174000704143F8221007F10C07BD4680BC70477A
:1017500080B483B000AF78600B46FB70FB78002B41
:101760000CD04FF020434FF02042796852F82120EE
:1017700042F001017A6843F822100EE04FF0204257
:101780004FF02043796853F821104FF6FE73C0F2F2
:101790000F030B40796842F8213007F10C07BD4672
:1017A00080BC704780B489B000AF786039604FF07A
:1017B0000003FB614FF000033B614FF00003BB618E
:1017C0004FF00003FB604FF000037B614FF000031C
:1017D000BB603B68DB7803F00F03FB613B68DB78A1
:1017E00003F01003002B04D03B689B78FA69134385
:1017F000FB613B681B88DBB2002B4ED07B681B680B
:101800007B614FF00003BB6141E0BB694FF0010217
:1018100002FA03F3FB603B681B881A46FB6813401F
:101820003B613A69FB689A422DD1BB694FEA830359
:10183000FB60FB684FF00F0202FA03F3BB60BB686A
:101840006FEA03037A6913407B61FB68FA6902FA65
:1018500003F37A6913437B613B68DB78282B07D15C
:10186000BB694FF0010202FA03F27B685A610AE099
:101870003B68DB78482B06D1BB694FF0010202FAC6
:1018800003F27B681A61BB6903F10103BB61BB69A9
:10189000072BBAD97B687A691A603B681B88FF2BD3
:1018A00053D97B685B687B614FF00003BB6146E006
:1018B000BB6903F108034FF0010202FA03F3FB6076
:1018C0003B681B881A46FB6813403B613A69FB681A
:1018D0009A4230D1BB694FEA8303FB60FB684FF04B
:1018E0000F0202FA03F3BB60BB686FEA03037A6975
:1018F00013407B61FB68FA6902FA03F37A691343C8
:101900007B613B68DB78282B08D1BB6903F10803B6
:101910004FF0010202FA03F27B685A613B68DB7800
:10192000482B08D1BB6903F108034FF0010202FA0A
:1019300003F27B681A61BB6903F10103BB61BB69F8
:10194000072BB5D97B687A695A6007F12407BD4631
:1019500080BC704780B485B000AF78600B467B8058
:101960004FF00003FB737B689A687B881340002B61
:1019700003D04FF00103FB7302E04FF00003FB7351
:10198000FB7B184607F11407BD4680BC704700BFBB
:1019900080B586B000AF00F08BFD00F021FC00F0B8
:1019A000EBFCFFF7FBF8FEF7EDFB0346184601F0F2
:1019B0009FFE4FF00003FB8242F21073BB8241F2A4
:1019C00088337B824FF00000FFF7B6FAFEF7B2FBD8
:1019D00042F2107000F09EFD4FF00000FFF7ACFAED
:1019E000F868FEF735FCF8607B8AF8681946FEF760
:1019F00069FCBB8AB8681946FEF7E2FCB860F86873
:101A0000B968FEF799FD0346FB71FB7983F001038A
:101A1000DBB2002B05D0FB8A1846FEF7C5FD00BFE0
:101A200032E0FB8A03F10103FB82BB8A184600F017
:101A3000DDFF02460B461046194617A3D3E90023E3
:101A400001F03AF802460B461046194601F0F6FA44
:101A50000346BB827B8A184600F0C8FF02460B464D
:101A6000104619460EA3D3E9002301F025F80246DB
:101A70000B461046194601F0E1FA03467B82FB8AC9
:101A80001846FEF71BFEABE7184607F11807BD46E0
:101A900080BD00BFAFF30080CDCCCCCCCCCCEC3F34
:101AA000666666666666E63F90B482B000AF7860B0
:101AB0000B46FB70FB78A3F120034FEA031248F2B8
:101AC000E843C0F60003D2187B6814685068916838
:101AD000D2681C6058609960DA6007F10807BD465B
:101AE00090BC704780B485B000AF78604FF00003C1
:101AF000FB604FF48053C4F202035B68FB60FB6839
:101B000023F44043FB60FA687B681343FB604FF4A7
:101B10008053C4F20203FA685A6007F11407BD4605
:101B200080BC704780B487B000AF78604FF000038E
:101B30007B614FF000033B614FF00003FB604FF00F
:101B40000003BB604FF48053C4F202035B6803F0F0
:101B50000C037B617B69042B0AD0082B0FD0002B70
:101B60004DD17A684FF49053C0F27A0313604DE080
:101B70007A684FF49053C0F27A03136046E04FF452
:101B80008053C4F202035B6803F470133B614FF4AB
:101B90008053C4F202035B6803F48033FB603B694B
:101BA0004FEA934303F102033B61FB68002B09D129
:101BB0003A694FF41063C0F23D0303FB02F27B6805
:101BC0001A6023E04FF48053C4F202035B6803F40D
:101BD0000033002B09D03A694FF41063C0F23D0383
:101BE00003FB02F27B681A6010E03A694FF49053ED
:101BF000C0F27A0303FB02F27B681A6006E07A689F
:101C00004FF49053C0F27A03136000BF4FF4805337
:101C1000C4F202035B6803F0F0037B617B694FEA67
:101C200013137B6140F20403C2F200037A699B182C
:101C30001B78DBB2BB607B681A68BB6822FA03F2D0
:101C40007B685A604FF48053C4F202035B6803F46C
:101C5000E0637B617B694FEA13237B6140F20403FD
:101C6000C2F200037A699B181B78DBB2BB607B6809
:101C70005A68BB6822FA03F27B689A604FF480537B
:101C8000C4F202035B6803F460537B617B694FEA33
:101C9000D3237B6140F20403C2F200037A699B18EC
:101CA0001B78DBB2BB607B685A68BB6822FA03F220
:101CB0007B68DA604FF48053C4F202035B6803F47C
:101CC00040437B617B694FEA93337B6140F21403AD
:101CD000C2F200037A699B181B78DBB2BB607B6899
:101CE000DA68BB68B2FBF3F27B681A6107F11C0784
:101CF000BD4680BC704700BF80B483B000AF786041
:101D00000B46FB70FB78002B0CD04FF48053C4F2D1
:101D100002034FF48052C4F2020251697A680A4306
:101D20005A610DE04FF48053C4F202034FF4805225
:101D3000C4F2020251697A686FEA02020A405A61EB
:101D400007F10C07BD4680BC704700BF80B483B06C
:101D500000AF78600B46FB70FB78002B0CD04FF483
:101D60008053C4F202034FF48052C4F2020291691C
:101D70007A680A439A610DE04FF48053C4F202037B
:101D80004FF48052C4F2020291697A686FEA02024B
:101D90000A409A6107F10C07BD4680BC704700BF3E
:101DA00080B485B000AF786039604FF00003FB600D
:101DB0004FF00003FB727B685B68FB60FB6823F4F9
:101DC000702323F48073FB603B681A683B681B79BF
:101DD0004FEA03231343FA681343FB607B68FA68F6
:101DE0005A607B689B68FB60FA684FF2FD73CFF620
:101DF000F1731340FB603B68DA683B689B681A43E9
:101E00003B685B794FEA43031343FA681343FB6073
:101E10007B68FA689A607B68DB6AFB60FB6823F486
:101E20007003FB603B681B7C03F1FF33DAB2FB7A83
:101E30001343FB72FB7A4FEA0353FA681343FB60C8
:101E40007B68FA68DA6207F11407BD4680BC704708
:101E500080B483B000AF78600B46FB70FB78002B3A
:101E600006D07B689B6843F001027B689A6005E0BE
:101E70007B689B6823F001027B689A6007F10C077E
:101E8000BD4680BC704700BF80B483B000AF7860AF
:101E90007B689B6843F008027B689A6007F10C0737
:101EA000BD4680BC704700BF80B485B000AF78608D
:101EB0004FF00003FB737B689B6803F00803002B63
:101EC00003D04FF00103FB7302E04FF00003FB73FC
:101ED000FB7B184607F11407BD4680BC704700BF66
:101EE00080B483B000AF78607B689B6843F00402E5
:101EF0007B689A6007F10C07BD4680BC704700BF45
:101F000080B485B000AF78604FF00003FB737B684E
:101F10009B6803F00403002B03D04FF00103FB7315
:101F200002E04FF00003FB73FB7B184607F1140738
:101F3000BD4680BC704700BF80B483B000AF7860FE
:101F40000B46FB70FB78002B06D07B689B6843F444
:101F5000A0027B689A6005E07B689B6823F4A0027E
:101F60007B689A6007F10C07BD4680BC704700BFD4
:101F700080B485B000AF7860F970BA707B704FF0B4
:101F80000003FB604FF00003BB60FB78092B27D9EF
:101F90007B68DB68FB60FA7813464FEA43039B18C3
:101FA000A3F11E034FF0070202FA03F3BB60BB6804
:101FB0006FEA0303FA681340FB607978FA781346F6
:101FC0004FEA43039B18A3F11E0301FA03F3BB601E
:101FD000FA68BB681343FB607B68FA68DA6022E04A
:101FE0007B681B69FB60FA7813464FEA43039B1832
:101FF0004FF0070202FA03F3BB60BB686FEA03030A
:10200000FA681340FB607978FA7813464FEA430385
:102010009B1801FA03F3BB60FA68BB681343FB60CB
:102020007B68FA681A61BB78062B27D87B685B6BE4
:10203000FB60BB7803F1FF3213464FEA83039B1822
:102040004FF01F0202FA03F3BB60BB686FEA0303A1
:10205000FA681340FB60F978BB7803F1FF3213464E
:102060004FEA83039B1801FA03F3BB60FA68BB686D
:102070001343FB607B68FA685A6351E0BB780C2B12
:1020800027D87B681B6BFB60BA7813464FEA830343
:102090009B18A3F123034FF01F0202FA03F3BB6066
:1020A000BB686FEA0303FA681340FB60F978BA78FB
:1020B00013464FEA83039B18A3F1230301FA03F3AA
:1020C000BB60FA68BB681343FB607B68FA681A63FD
:1020D00026E07B68DB6AFB60BA7813464FEA83032D
:1020E0009B18A3F141034FF01F0202FA03F3BB60F8
:1020F000BB686FEA0303FA681340FB60F978BA78AB
:1021000013464FEA83039B18A3F1410301FA03F33B
:10211000BB60FA68BB681343FB607B68FA68DA62ED
:1021200007F11407BD4680BC704700BF80B483B080
:1021300000AF78607B68DB6C9BB2184607F10C0738
:10214000BD4680BC704700BF80B485B000AF7860EA
:102150000B46FB704FF00003FB737B681A68FB783B
:102160001340002B03D04FF00103FB7302E04FF04C
:102170000003FB73FB7B184607F11407BD4680BCC8
:10218000704700BF80B485B000AF786040F6980318
:10219000C2F200031B68002B08D140F69803C2F27C
:1021A000000340F6F002C2F200021A6040F6980303
:1021B000C2F200031B68FB6040F69803C2F2000302
:1021C0001A687B68D21840F69803C2F200031A60BE
:1021D000FB68184607F11407BD4680BC704700BF76
:1021E00080B586B000AF40F6E803C2F200034FF0BE
:1021F0000002DA7040F6E803C2F200034FF010026A
:102200001A804FF48050C4F2010040F6E801C2F297
:102210000001FFF7C7FA4FF40040FFF763FC4FF4EB
:1022200000704FF00101FFF791FD40F6D403C2F2B8
:1022300000034FF000021A6040F6D403C2F200031C
:102240004FF000021A7140F6D403C2F200034FF0BF
:1022500000025A7140F6D403C2F200034FF4602228
:102260009A6040F6D403C2F200034FF00002DA6035
:1022700040F6D403C2F200034FF001021A744FF487
:102280001050C4F201004FF00E014FF001024FF068
:102290000303FFF76DFE4FF41050C4F2010040F647
:1022A000D401C2F20001FFF77BFD4FF41050C4F2DD
:1022B00001004FF00101FFF7CBFD4FF41050C4F2C5
:1022C0000100FFF7E1FD00BF4FF41050C4F2010020
:1022D000FFF7EAFD0346002BF6D14FF41050C4F28D
:1022E0000100FFF7FDFD00BF4FF41050C4F20100E4
:1022F000FFF706FE0346002BF6D14FF41050C4F250
:1023000001004FF00101FFF7A3FD4FF41050C4F29C
:1023100001004FF00101FFF70FFE07F1040318461B
:10232000FFF700FC07F11807BD4680BD80B582B0FD
:1023300000AF4FF41050C4F201004FF00101FFF75D
:10234000FBFD00BF4FF41050C4F201004FF002013A
:10235000FFF7FAFE0346002BF4D04FF41050C4F2FE
:102360000100FFF7E3FE0346FB80FB88184607F1F8
:102370000807BD4680BD00BF80B582B000AF4FF4F6
:1023800080704FF00101FFF7E1FC4FF4D343BB80B5
:102390004FF00403FB714FF00203BB7107F104031C
:1023A0004FF40050C4F201001946FFF7FBF907F1A2
:1023B0000807BD4680BD00BF80B582B000AF4FF0BA
:1023C0000003FB714FF40050C4F201004FF40061B0
:1023D000FFF7C0FA0346002B02D14FF00103FB7157
:1023E0004FF40050C4F201004FF48071FFF7B2FACD
:1023F0000346002B03D1FB7903F10203FB714FF479
:102400000050C4F201004FF40051FFF7A3FA034655
:10241000002B03D1FB7903F10303FB714FF4005050
:10242000C4F201004FF48041FFF794FA0346002BF9
:1024300003D1FB7903F10603FB714FF40050C4F2A2
:1024400001004FF08001FFF785FA0346002B02D10F
:102450004FF01003FB71FB79184607F10807BD46E2
:1024600080BD00BF80B483B000AF78607B68042B70
:102470000CD14EF21003CEF200034EF21002CEF257
:102480000002126842F004021A600BE04EF21003E0
:10249000CEF200034EF21002CEF20002126822F0D9
:1024A00004021A6007F10C07BD4680BC704700BFEC
:1024B00080B586B000AF07F104031846FFF732FB82
:1024C0006FF00400FFF7CEFF4FF0000000F0DCF8E3
:1024D000BA684DF68363C4F21B33A3FB02134FEAC1
:1024E0005353DAB240F69C03C2F200031A70BA6882
:1024F00044F6D353C1F26203A3FB02134FEA532302
:102500009AB240F69E03C2F200031A8007F1180740
:10251000BD4680BD80B584B000AF0346FB8040F669
:102520009E03C2F200031B88FA8802FB03F3FB60E0
:10253000FA686FF07F439A4202D96FF07F43FB60E5
:10254000F86800F05FF84FF0000000F06BF84FF013
:10255000010000F067F84FF0100000F0BBF80346F0
:10256000FB72FB7A012BF6D16FF0010000F05AF8F4
:102570004FF0000000F056F807F11007BD4680BD8F
:1025800080B584B000AF0346FB8040F69E03C2F2E4
:1025900000031B88FA8802FB03F3FB60FA686FF004
:1025A0007F439A4202D96FF07F43FB60F86800F0E6
:1025B00029F84FF0000000F035F84FF0010000F06E
:1025C00031F807F11007BD4680BD00BF80B500AFF0
:1025D0006FF0010000F026F84FF0000000F022F844
:1025E00080BD00BF80B582B000AF4FF0100000F09A
:1025F00071F80346FB71FB79184607F10807BD46E1
:1026000080BD00BF80B483B000AF78604EF210038D
:10261000CEF200037A685A6007F10C07BD4680BC11
:10262000704700BF80B483B000AF78607B68012B37
:102630000CD14EF21003CEF200034EF21002CEF295
:102640000002126842F001021A6017E07B6813F181
:10265000020F0CD14EF21003CEF200034EF2100224
:10266000CEF20002126822F001021A6006E04EF279
:102670001003CEF200034FF000029A6007F10C073E
:10268000BD4680BC704700BF80B483B000AF034636
:10269000FB71FB79002B0CD04EF21003CEF200033D
:1026A0004EF21002CEF20002126842F002021A60EC
:1026B0000BE04EF21003CEF200034EF21002CEF207
:1026C0000002126822F002021A6007F10C07BD46F0
:1026D00080BC704780B487B000AF0346FB714FF0F9
:1026E00000037B614FF00003FB604FF00003FB74BD
:1026F000FB794FEAD303DBB2FB60FB68022B06D108
:102700004EF21003CEF200031B687B6105E04EF22F
:102710001003CEF20003DB687B61FB797A6922FA51
:1027200003F303F00103002B03D04FF00103FB740C
:1027300002E04FF00003FB74FB7C184607F11C0716
:10274000BD4680BC704700BF81F0004102E000BF81
:1027500083F0004330B54FEA41044FEA430594EA61
:10276000050F08BF90EA020F1FBF54EA000C55EA9C
:10277000020C7FEA645C7FEA655C00F0E2804FEA6D
:102780005454D4EB5555B8BF6D420CDD2C4480EA4F
:10279000020281EA030382EA000083EA010180EA7F
:1027A000020281EA0303362D88BF30BD11F0004FCD
:1027B0004FEA01314FF4801C4CEA113102D0404203
:1027C00061EB410113F0004F4FEA03334CEA13333E
:1027D00002D0524263EB430394EA050F00F0A78056
:1027E000A4F10104D5F1200E0DDB02FA0EFC22FA51
:1027F00005F2801841F1000103FA0EF2801843FA45
:1028000005F359410EE0A5F120050EF1200E012A35
:1028100003FA0EFC28BF4CF0020C43FA05F3C01873
:1028200051EBE37101F0004507D54FF0000EDCF1EC
:10283000000C7EEB00006EEB0101B1F5801F1BD395
:10284000B1F5001F0CD349085FEA30004FEA3C0C99
:1028500004F101044FEA445212F5800F80F09A808F
:10286000BCF1004F08BF5FEA500C50F1000041EB93
:10287000045141EA050130BD5FEA4C0C404141EB97
:10288000010111F4801FA4F10104E9D191F0000FBE
:1028900004BF01460020B1FA81F308BF2033A3F141
:1028A0000B03B3F120020CDA0C3208DD02F1140C38
:1028B000C2F10C0201FA0CF021FA02F10CE002F173
:1028C0001402D8BFC2F1200C01FA02F120FA0CFC6C
:1028D000DCBF41EA0C019040E41AA2BF01EB0451B5
:1028E000294330BD6FEA04041F3C1CDA0C340EDCB3
:1028F00004F11404C4F1200220FA04F001FA02F3F6
:1029000040EA030021FA04F345EA030130BDC4F1B3
:102910000C04C4F1200220FA02F001FA04F340EAA8
:102920000300294630BD21FA04F0294630BD94F059
:10293000000F83F4801306BF81F480110134013D40
:102940004EE77FEA645C18BF7FEA655C29D094EAB1
:10295000050F08BF90EA020F05D054EA000C04BF2F
:102960001946104630BD91EA030F1EBF002100201A
:1029700030BD5FEA545C05D14000494128BF41F0B9
:10298000004130BD14F580043CBF01F5801130BD1D
:1029900001F0004545F0FE4141F470014FF00000A8
:1029A00030BD7FEA645C1ABF194610467FEA655C59
:1029B0001CBF0B46024650EA013406BF52EA0335FB
:1029C00091EA030F41F4002130BD00BF90F0000FE9
:1029D00004BF0021704730B54FF4806404F1320425
:1029E0004FF000054FF0000150E700BF90F0000FDE
:1029F00004BF0021704730B54FF4806404F1320405
:102A000010F0004548BF40424FF000013EE700BFD4
:102A100042004FEAE2014FEA31014FEA02701FBF64
:102A200012F07F4393F07F4F81F06051704792F036
:102A3000000F14BF93F07F4F704730B54FF46074B0
:102A400001F0004521F0004120E700BF50EA0102FB
:102A500008BF704730B54FF000050AE050EA0102A8
:102A600008BF704730B511F0004502D5404261EB18
:102A700041014FF4806404F132045FEA915C3FF459
:102A8000DCAE4FF003025FEADC0C18BF03325FEAF2
:102A9000DC0C18BF033202EBDC02C2F1200300FAA7
:102AA00003FC20FA02F001FA03FE40EA0E0021FACC
:102AB00002F11444C1E600BF70B54FF0FF0C4CF4B6
:102AC000E06C1CEA11541DBF1CEA135594EA0C0F6C
:102AD00095EA0C0F00F0DEF82C4481EA030621EAA7
:102AE0004C5123EA4C5350EA013518BF52EA0335E2
:102AF00041F4801143F4801338D0A0FB02CE4FF094
:102B00000005E1FB02E506F00042E0FB03E54FF0C3
:102B10000006E1FB03569CF0000F18BF4EF0010EBB
:102B2000A4F1FF04B6F5007F64F5407404D25FEAB7
:102B30004E0E6D4146EB060642EAC62141EA55516A
:102B40004FEAC52040EA5E504FEACE2EB4F1FD0CAC
:102B500088BFBCF5E06F1ED8BEF1004F08BF5FEA2A
:102B6000500E50F1000041EB045170BD06F00046DC
:102B700046EA010140EA020081EA0301B4EB5C0489
:102B8000C2BFD4EB0C0541EA045170BD41F4801181
:102B90004FF0000E013C00F3AB8014F1360FDEBFA6
:102BA000002001F0004170BDC4F10004203C35DA82
:102BB0000C341BDC04F11404C4F1200500FA05F305
:102BC00020FA04F001FA05F240EA020001F00042A6
:102BD00021F0004110EBD37021FA04F642EB06011C
:102BE0005EEA430E08BF20EAD37070BDC4F10C0446
:102BF000C4F1200500FA04F320FA05F001FA04F20A
:102C000040EA020001F0004110EBD37041F10001F5
:102C10005EEA430E08BF20EAD37070BDC4F1200500
:102C200000FA05F24EEA020E20FA04F301FA05F268
:102C300043EA020321FA04F001F0004121FA04F210
:102C400020EA020000EBD3705EEA430E08BF20EAE0
:102C5000D37070BD94F0000F0FD101F0004640001A
:102C600041EB010111F4801F08BF013CF7D041EA9C
:102C7000060195F0000F18BF704703F000465200A0
:102C800043EB030313F4801F08BF013DF7D043EA71
:102C90000603704794EA0C0F0CEA135518BF95EA27
:102CA0000C0F0CD050EA410618BF52EA4306D1D1AE
:102CB00081EA030101F000414FF0000070BD50EACD
:102CC000410606BF1046194652EA430619D094EA57
:102CD0000C0F02D150EA013613D195EA0C0F05D141
:102CE00052EA03361CBF104619460AD181EA030195
:102CF00001F0004141F0FE4141F470014FF000004D
:102D000070BD41F0FE4141F4780170BD70B54FF0E7
:102D1000FF0C4CF4E06C1CEA11541DBF1CEA135567
:102D200094EA0C0F95EA0C0F00F0A7F8A4EB050449
:102D300081EA030E52EA03354FEA013100F0888040
:102D40004FEA03334FF0805545EA131343EA126309
:102D50004FEA022245EA111545EA10654FEA0026BE
:102D60000EF000419D4208BF964244F1FD0404F577
:102D7000407402D25B084FEA3202B61A65EB0305D3
:102D80005B084FEA32024FF480104FF4002CB6EB90
:102D9000020E75EB030E22BFB61A754640EA0C0010
:102DA0005B084FEA3202B6EB020E75EB030E22BF50
:102DB000B61A754640EA5C005B084FEA3202B6EB91
:102DC000020E75EB030E22BFB61A754640EA9C0050
:102DD0005B084FEA3202B6EB020E75EB030E22BF20
:102DE000B61A754640EADC0055EA060E18D04FEADE
:102DF000051545EA16754FEA06164FEAC30343EA7E
:102E000052734FEAC2025FEA1C1CC0D111F4801F4A
:102E10000BD141EA00014FF000004FF0004CB6E743
:102E200011F4801F04BF01430020B4F1FD0C88BFE2
:102E3000BCF5E06F3FF6AFAEB5EB030C04BFB6EBED
:102E4000020C5FEA500C50F1000041EB045170BDE0
:102E50000EF0004E4EEA113114EB5C04C2BFD4EB0D
:102E60000C0541EA045170BD41F480114FF0000E91
:102E7000013C90E645EA060E8DE60CEA135594EA0D
:102E80000C0F08BF95EA0C0F3FF43BAF94EA0C0F10
:102E90000AD150EA01347FF434AF95EA0C0F7FF485
:102EA00025AF104619462CE795EA0C0F06D152EAD9
:102EB00003353FF4FDAE1046194622E750EA4106BD
:102EC00018BF52EA43067FF4C5AE50EA41047FF4CE
:102ED0000DAF52EA43057FF4EBAE12E74FF0FF3C33
:102EE00006E000BF4FF0010C02E000BF4FF0010C04
:102EF0004DF804CD4FEA410C7FEA6C5C4FEA430C7D
:102F000018BF7FEA6C5C1BD001B050EA410C0CBFCB
:102F100052EA430C91EA030F02BF90EA020F00202D
:102F2000704710F1000F91EA030F58BF994208BF94
:102F300090422CBFD8176FEAE37040F00100704751
:102F40004FEA410C7FEA6C5C02D150EA013C07D1A8
:102F50004FEA430C7FEA6C5CD6D152EA033CD3D0F3
:102F60005DF8040B704700BF8446104662468C46ED
:102F70001946634600E000BF01B5FFF7B7FF002820
:102F800048BF10F1000F01BD4DF808EDFFF7F4FF49
:102F90000CBF012000205DF808FB00BF4DF808EDD4
:102FA000FFF7EAFF34BF012000205DF808FB00BFF7
:102FB0004DF808EDFFF7E0FF94BF012000205DF819
:102FC00008FB00BF4DF808EDFFF7CEFF94BF0120CE
:102FD00000205DF808FB00BF4DF808EDFFF7C4FFC7
:102FE00034BF012000205DF808FB00BF4FEA41021A
:102FF00012F5001215D211D56FF47873B3EB62524B
:1030000012D94FEAC12343F0004343EA505311F071
:10301000004F23FA02F018BF404270474FF0000003
:10302000704750EA013005D111F0004008BF6FF041
:10303000004070474FF00000704700BF4A0011D2B7
:1030400012F5001211D20DD56FF47873B3EB625202
:103050000ED44FEAC12343F0004343EA505323FA0E
:1030600002F070474FF00000704750EA013002D183
:103070004FF0FF3070474FF00000704740F65003AC
:10308000C2F200030146186800F000B82DE9F04FC5
:1030900001F10B05162D83B0064627D935F007053B
:1030A00027D4A94225D8304600F01EFBB5F5FC7F99
:1030B00023D2B94F4FEAD50C07EBCC02D468944227
:1030C00000F0D8816368E26823F003016318586850
:1030D000A16840F001005860CA609160304600F07D
:1030E00005FB0834204603B0BDE8F08F1025A94247
:1030F000D9D90C2434600024F4E75FEA552C00F0A1
:103100008980BCF1040F00F253814FEA951707F153
:10311000380E4FEA4E01A04F07EB8101CC68A14267
:1031200005D10CE0002A7ADAE468A14207D063688E
:1031300023F00300421B0F2AF4DD0EF1FF3E0EF1D7
:10314000010C954B3C6903F1080E744500F0708149
:10315000616821F003014A1B0F2A00F35681002AFF
:10316000C3F814E0C3F810E067DAB1F5007F80F02F
:103170002D81C90888104FF0010808FA00F803EB08
:10318000C1015A68886848EA0202E160A0605A609A
:103190008C60C46001204FEAAC0400FA04F0904255
:1031A00055D8024206D12CF0030C400002420CF12B
:1031B000040CFAD007EBCC094C46E046E3689C428D
:1031C00007D137E1002A80F25F81DB689C4200F082
:1031D0003181596821F003014A1B0F2AF2DD1C4698
:1031E000D86854F808CF591945F0010842F0010594
:1031F000CCF80C00C0F808C0C3F8048079613961CC
:10320000C1F80CE0C1F808E04D608A50304600F08B
:103210006DFA67E74FEAD50E4FEA4E017BE72218B9
:103220005068E368A16840F001005060CB6099608D
:10323000304600F05BFA083454E7621853683046B1
:1032400043F00101516000F051FA08344AE7BC68CC
:10325000606820F00309A94504D3C5EB09030F2BCF
:1032600000F38D804D4A4E4B11681868013104EB14
:10327000090B05EB000300F0518103F580500F307E
:1032800020F47F6121F00F0C614630468DE8041078
:1032900000F05EFA9DE80410B0F1FF3F804600F0B8
:1032A0004681834500F20881DFF800A1C345DAF8C2
:1032B00000306344CAF8003000F03E8112680132E9
:1032C00000F04B81CBEB080B5B44CAF8003018F0E0
:1032D000070100F00481C1F10800C1F5805380446A
:1032E00003F1080208EB0C010805030DC3EB020B08
:1032F0003046594600F02CFA431C00F03A81C8EBE6
:1033000000020BEB020141F00100DAF80030BC4290
:103310005B44C7F80880CAF80030C8F8040015D02C
:10332000B9F10F0F40F2E9806168A9F10C0222F0B7
:10333000070201F0010C0520A11842EA0C0E0F2A29
:10334000C4F804E04860886000F20B81154ABC684C
:103350001068834288BF1360134A11688B4288BF8C
:103360001360636823F00300A842C5EB000301D398
:103370000F2B04DC304600F0B9F90024B2E66219E4
:1033800043F0010145F00105656030465160BA60C7
:1033900000F0ACF90834A5E6180000202404002051
:1033A000A8080020A4080020A0080020AC080020E5
:1033B000BCF1140F77D9BCF1540F00F286804FEAAC
:1033C000153404F16E0E4FEA4E01A4E6480A0428B3
:1033D0006ED9142800F2A58000F15B02500007EBC3
:1033E00080008368DFF8C88183427BD05A6822F06E
:1033F0000302914202D29B689842F7D1D9687A6859
:10340000E160A360DC608C60C4E6611942F00100F9
:1034100045F001056560596119614860C1F80CE02B
:10342000C1F808E08A50304600F060F9083459E6E7
:103430005A68AFE608F10108083418F0030F7FF46A
:10344000BDAE49461CF0030FA1F108040CF1FF3C8E
:1034500000F0A2800968A142F4D07C684000A0423C
:103460003FF6F5AE00283FF4F2AE044200F099803A
:10347000C4469FE604F108036469A34208BF0CF147
:10348000020C3FF45EAE1DE6591848681C4654F81D
:10349000082FDB6840F001004860D3609A60304636
:1034A00000F024F91EE60CF15B0E4FEA4E0132E605
:1034B0008A093832500092E7BC423FF4F5AE3C4CEA
:1034C000A468626822F003004EE7BCF5AA7F1AD810
:1034D0004FEAD53202F1770E4FEA4E011BE64FF468
:1034E0008052FFE69110012000FA01F0D8F8042084
:1034F00019460243C8F8042082E70122C8F80420D4
:103500004446002030E740F254539C4521D84FEA0E
:10351000954000F17C0E4FEA4E01FCE503F1100CE2
:10352000B2E6542829D80A0B6E32500057E7BC681F
:10353000616821F0030017E74FEA0B50010D0029E5
:103540007FF4BCAEB8680CEB090141F001044460A3
:10355000FCE6FC214FF07E0EDDE51648C0F8008049
:10356000B5E604F10801144C304603F059F923681C
:10357000ECE601204FF0000BC7E6B0F5AA7F03D8B8
:10358000CA0B773250002AE740F2545398420CD8C5
:103590008A0C7C32500022E77C6824EA00047C60BC
:1035A0005CE7400008F104085FE7FC207E2216E794
:1035B0001800002024040020AC080020F0B4840788
:1035C000034600F08D80541E002A00F08780E50736
:1035D000CEB211D41A4602F8016B13461546920773
:1035E00010D0621E002C79D003F8016B14469A07A4
:1035F0001D4607D0013CEDE7034603F8016B9A072F
:103600001D46F7D1032C52D9CEB246EA06270F2C1D
:1036100047EA07432DD9A4F1100217460F2FC2F332
:1036200000162B606B60AB60EB6005F1100216D9E1
:103630003EB1103F136053609360D36010320F2F80
:103640000DD9203F02F11006136053609360D360E0
:10365000136153619361D36120320F2FF1D8A4F12C
:10366000100222F00F0204F00F041032032C154454
:103670001DD9271F3E462A46032E42F8043BC7F3B6
:1036800080070DD927B1043E032E42F8043B07D929
:10369000174647F8043B083E53603A1D032EF7D8FF
:1036A000231F23F00302131D04F00304ED18ACB133
:1036B000C9B2EA432C1905F8011BA318A54203F06F
:1036C00001020BD01AB105F8011BA54206D02B460A
:1036D00003F8011B69705D1CA542F8D1F0BC70476E
:1036E000054614468EE700BF704700BF704700BF15
:1036F00040F65003C2F2000319680022C1F8A80086
:10370000C1F8AC20704700BF30B440F65003C2F29D
:1037100000031C684FF22D41D4F8A800C5F65101F2
:1037200001FB00F5D4F8AC2047F62D73C4F69543A1
:1037300003FB0255A0FB03010122002369181218A4
:1037400043EB0103C4E92A2323F0004030BC704757
:1037500038B5074C0023054608462360FEF712FDE6
:10376000431C00D038BD21680029FBD0296038BD3A
:10377000EC0800200EB4F0B59CB021AC54F8042B3A
:1037800040F650036FF00045C2F20003064602A95E
:103790000495079518684FF4027723464FF6FF7596
:1037A000ADF8147002960696ADF81650019400F02C
:1037B00009F8029900220A701CB0BDE8F04003B07D
:1037C000704700BF2DE9F04FC3B08B4610931446ED
:1037D0000C9003F0EFF80068002600271490CDE964
:1037E000166703F075FFBBF80C30189003F08000EB
:1037F00001B221B1DBF81020002A01F0CA820027B3
:1038000032AEDFF8209511970896259627972697D0
:10381000A24619971A970F979AF80040002C00F0CB
:10382000A281252C00F09F810AF1010301E0252DE2
:1038300004D01D781C460133002DF8D1CAEB0405D5
:103840007DB1269A2798531C4119072BC6F800A072
:1038500075602791269300F3698108360F9F7F19C1
:103860000F972078002800F06981002104F1010AF7
:1038700094F801804FF0FF340D918DF87310099189
:103880000A9420202B210AF1010AA8F12002582ACB
:1038900000F25D82DFE812F074025B025B027E02DE
:1038A0005B025B025B025B025B025B02B901C5016A
:1038B0005B024301CA015B0285028C028C028C020E
:1038C0008C028C028C028C028C028C025B025B02EA
:1038D0005B025B025B025B025B025B025B025B0200
:1038E000870088015B0288015B025B025B025B026E
:1038F000F8015B025B026D005B025B025B025B0234
:103900005B0259005B025B02FF015B025B025B0230
:103910005B025B025B025B025B025B025B02E60135
:103920008B00880188018801AA028B005B025B0280
:10393000D7025B029D0271001F0234025B02B102DA
:103940005B025D005B025B024802099D45F01002CC
:103950000992099B990600F10882099CE20641F14F
:103960009180109F3D683B1D10932C46012300253C
:1039700016E1099A42F010010991099B13F0200306
:1039800040F00481099C14F0100040F06187099D0B
:1039900015F0400300F05C87109F03463A1D3C88F9
:1039A00000251092FCE0099D45F010030993099F42
:1039B000BF0640F1DA80109CE01D20F00705D5E934
:1039C00000230835109514461D46002A73F10000A7
:1039D000C0F2358701230A9F002F03DB099921F0EC
:1039E0008000099054EA050040F0EF830A9A002A0B
:1039F00040F0EB83002B40F05886099BDA0741F139
:103A0000178042AF3021089807F8411DC21B0E9263
:103A10000A990E9800248842B8BF08469DF8733072
:103A20000B901291159413B10B9B5A1C0B92099891
:103A300010F002010A9102D00B9A941C0B94099B7E
:103A400013F08400139040F028820D9D0B996D1A9D
:103A5000002D40F32282102D41F31482279A269BD9
:103A600048F62C301024C0F6000086E81100111929
:103A7000A7485A1CA5F1110E072A1B9027912692E0
:103A8000CEF3001300F36C850836103D102D40F383
:103A9000F8818BB1013248F62C331031C0F60003A7
:103AA000072A86E818002791269200F368850836D1
:103AB000103D102D40F3E58133462E463D460C9FC8
:103AC00013E00833013248F62C301031C0F6000004
:103AD000103E072A83E811002791269200F3BF8148
:103AE000103E0833102E40F3C981013248F62C30C5
:103AF0001031C0F60000072A83E8110027912692B2
:103B0000DFDD3846594625AA03F012FEE8B92799A9
:103B1000269A32ABD6E70D9C109267420D97099B0F
:103B200043F0040209929AF80080ACE60C985946DA
:103B300025AA03F0FDFD40B932AE8FE6279C24B1E3
:103B40000C98594625AA03F0F3FDBBF80C100F9C06
:103B500001F040031AB2002A18BF4FF0FF3420468C
:103B600043B0BDE8F08F54467BE60999CD0600F1DD
:103B70005986099C640640F155861098B0F90040BA
:103B8000021DE51710922B4622461EE7109BDF1DF3
:103B900027F0070202F1080110910023D2E9004545
:103BA00000208DF8730016E7109DEF1D27F0070128
:103BB0000D684C680831109128462146CDE9160160
:103BC0002146284603F050FD01282146284640F0B2
:103BD000408700220023FFF7E1F9002841F0F88137
:103BE0009DF8733000274B4A099912974A4F0320DA
:103BF0000B90B8F1470FD8BF174621F0800403207F
:103C0000002209940E9015920DE7109A109B1768E8
:103C10001A1D002F0D97FFF67EAF9AF800801092C4
:103C200031E68DF873109AF800802CE6544614F8AB
:103C3000018BB8F12A0F01F0F482A8F130030022C1
:103C4000092B01F23E8214F8018B02EB820703EB91
:103C50004702A8F13003092BA246F4D942EAE274E4
:103C60000A9412E61099109C08680127221D00236F
:103C70000B970E9710928DF8A0008DF8733028AF37
:103C8000002312931593D2E6099C44F0080309938C
:103C90009AF80080F7E50999204D8F06199548D5C7
:103CA000109FFA1D22F0070303F108041094D3E9D2
:103CB00000450999C80740F1448454EA050000F022
:103CC0004084302041F002078DF874008DF8758033
:103CD0000997022364E710980999109D071D104861
:103CE00041F002034FF0780830222C6809931097B6
:103CF00000258DF874208DF87580199002234FE708
:103D0000099B43F0200209929AF80080BBE500BFAE
:103D10002C8B0008D88A0008DC8A0008E88A000892
:103D2000FC8A00081C8B000809999B4D8F06199589
:103D3000B6D40998C50600F19285099F7C0640F12A
:103D40008E85109A0025131D14881093B1E7B8F1E1
:103D5000000F3FF4F3AE012200240B928DF8A080F7
:103D60008DF873400E9228AF8AE7109C0123E01D66
:103D700020F0070505F108071097D5E900450FE782
:103D80009DF87330002B40F095868DF873009AF8FB
:103D9000008078E5099C44F0010709979AF80080B3
:103DA00071E5099F47F0800309939AF800806AE55E
:103DB00057460022A8F1300517F8018B02EB820369
:103DC000A8F13004092C05EB4302BA46F2D90D9252
:103DD0005BE5099CA40640F16186109F0F983B6843
:103DE000C417043718605C60109715E5099A42F013
:103DF000400309939AF8008045E5109B00248DF854
:103E000073401F681D1D002F01F0C5800A993846B8
:103E10000029C1F2028021460A9A02F0D1FD002851
:103E200001F042810A99C01B88420E90129440F31F
:103E3000A687129821EAE1740B949DF873301095CF
:103E40000E911590EFE59AF800805246B8F16C0F8C
:103E500000F0DE86099F47F01003099313E538460A
:103E6000594625AA03F064FC00287FF46EAE103E8C
:103E7000102E32AB2799269A3FF737AE2F4635469C
:103E80001E464C191B9B511C072986E828002794C5
:103E9000269100F30F84083600E0279C9DF87300FC
:103EA00068B1269B0134591C01200DF173020729CA
:103EB000326070602794269100F3058308360A9BD0
:103EC00063B126990234481C02231DAA07283260D8
:103ED00073602794269000F301830836139D802D8C
:103EE00000F02E82129D0E9BED1A002D75DD102D17
:103EF00040F3F385269A102301322848A5F1110ECC
:103F0000E418072AC6F8009073600A902794269256
:103F1000CEF3001C00F3AC820836103D102D51DDAD
:103F2000BCF1000F0DD001321034072AC6F8009002
:103F300073602794269200F3AD820836103D102D51
:103F400040DD31463E460C9F0EE008310132103410
:103F5000103D072AC1F800904B60269227941FDC81
:103F6000103D0831102D2BDD01321034072AC1F825
:103F700000904B6027942692E7DD3846594625AAE3
:103F8000069303F0D5FB069B00287FF4DEAD279C4B
:103F9000269A32A9DAE700BFFC8A00081C8B0008C9
:103FA0003846594625AA069303F0C2FB069B002813
:103FB0007FF4CBAD103D102D32A9279C269AD3DC7F
:103FC00037460E46501C0A9B6419072886E82800CD
:103FD0002794269000F36C820836099BDB0500F1DC
:103FE0001E8126980E9A3760411C0E9FA41807293F
:103FF00077602794269100F3A8800836099F7B07F5
:1040000040F1B1800D9D0B9BED1A002D40F3AB806C
:10401000102D40F3CC8726981027431CB24948F650
:104020002C30A5F1110CE419C0F60000072B86E82E
:104030008100099127942693CCF3001800F3BB83E9
:104040000836103D102D40F3AD80B8F1000F11D0AF
:10405000013348F62C301034C0F60000072B86E8F8
:1040600081002794269300F3D1830836103D102D4C
:1040700040F39880DDF8308012E00836013348F6CE
:104080002C301034C0F60000103D072B86E881006C
:104090002693279477DC103D0836102D40F382805C
:1040A000013348F62C321034C0F60002072B86E8A4
:1040B000840027942693E0DD4046594625AA03F064
:1040C00037FB00287FF441AD279C269B32AED5E715
:1040D0001199269D01340135012940F3798401238A
:1040E000072D376073602794269500F38784083680
:1040F00018990135149A6418072D3260716027945D
:10410000269500F388840836DDE916010022002395
:10411000FEF73AFF002840F0D982119801370138A4
:10412000241801353760072D70602794269500F319
:10413000898108361A9F0135E41921AB072D86E8DD
:104140008800279426957FF758AF0C98594625AAE2
:1041500003F0EEFA00287FF4F8AC099F32AE7B073B
:10416000279C3FF54FAF0F9E0B980D9FB842ACBFF9
:104170003618F6190F96002C40F07081002626960E
:1041800032AEFFF749BB4046594625AA03F0D0FAA4
:1041900000287FF4DAAC103D102D32AE279C269B10
:1041A0003FF77EAF5A1C099F2C19072A37607560AC
:1041B00027942692D7DD0C98594625AA03F0B8FA21
:1041C00000287FF4C2AC279CCDE7012B00F0AB8127
:1041D000022B0DF1C70E00F08C810723E70804EADB
:1041E0000300E90847EA457430300D46C2B254EA8C
:1041F000050177468EF800200EF1FF3EEED10998BA
:104200003B46C10706D5302A00F096813024774618
:1042100003F8014C0899CA1B0E92FFF7F9BBB8F1DD
:10422000650F7FF755AFDDE9160100220023FEF789
:10423000ABFE002800F0B28126982C49431C0134C3
:104240000122072B316072602794269300F34A8481
:1042500008361E98119FB84203DB099BDF077FF5E4
:10426000CDAE269A149F18993760501C189F641879
:10427000072877602794269000F375850836119DEE
:10428000013D002D7FF7BAAE102D40F38682269AAD
:10429000119B1027A3F1120E1548531CE419072B8C
:1042A000C6F8009077600A9027942693CEF3001802
:1042B00000F317860836103D102D40F37182B8F1D7
:1042C000000F0ED001331034072BC6F80090776032
:1042D0002794269300F32B860836103D102D40F3CB
:1042E0005F82DDF8308016E02C8B0008188B000808
:1042F0001C8B000808364B1C1034103D072BC6F8E9
:10430000009077602693279400F31E810836103DB5
:10431000102D40F34582591C10340729C6F800902F
:10432000776027942691E5DD4046594625AA03F09B
:10433000FFF900287FF409AC279C269932AEDAE712
:104340000D980B99451A002D7FF7CCAD102D40F339
:104350008886269A102301328F48A5F11101E418AE
:10436000072AC6F8009073600A9027942692C1F33A
:10437000001C00F31B830836103D102D4ADDBCF1F4
:10438000000F0DD001321034072AC6F80090736078
:104390002794269200F324830836103D102D39DD32
:1043A00021460C9C0EE0083601321031103D072AE0
:1043B000C6F800907360269227911ADC103D0836EB
:1043C000102D26DD01321031072AC6F800907360E7
:1043D00027912692E7DD2046594625AA069303F049
:1043E000A7F9069B00287FF4B0AB2799269A32AE36
:1043F000DAE72046594625AA069303F099F9069B69
:1044000000287FF4A2AB103D102D32AE2799269ADA
:10441000D8DC0C46501C0A9B6419072886E8280043
:104420002794269000F3098308365BE55A480A90E2
:1044300001350A9BE419072D86E888002794269504
:104440007FF777AE0C98594625AA03F071F900283A
:104450007FF47BAB32AE279C269D6BE60C985946C9
:1044600025AA03F065F900283FF488AEFFF76DBB7D
:104470000C98594625AA0693CDF81CC003F058F9AC
:10448000069BDDF81CC000287FF45FAB32AE279C92
:10449000269A42E50C98594625AA069303F048F956
:1044A000069B00287FF451AB32AE279C269A45E547
:1044B0000C98594625AA03F03BF900287FF445AB38
:1044C000279C32AE89E50C98594625AA03F030F9AD
:1044D00000287FF43AAB279C32AEF0E40C985946A2
:1044E00025AA03F025F900287FF42FAB279C32AED4
:1044F000F4E419990B960F2604EA06032709280904
:10450000CA1847EA05741678054654EA0500774646
:104510008EF800600EF1FF3EEDD108990B9ECB1B8B
:104520000E93FFF775BA002D08BF0A2C80F04F815B
:1045300042AF303407F8414D089CE21B0E92FFF762
:1045400067BA0223FFF72CBB4046594625AA03F061
:10455000EFF800287FF4F9AA32AE279C269BD6E616
:104560000C98594625AA069303F0E2F8069B00280A
:104570007FF4EBAA32AE2799269AFFF786BA0C98F9
:10458000594625AA03F0D4F800287FF4DEAA32AEFB
:104590002799269AFFF78CBA1C8B00081E9A002ACE
:1045A00040F3B282119D1599119B8D42A8BF0D4613
:1045B000FA18002D0A920ADD26986419411C072971
:1045C000376075602794269100F37F840836159B29
:1045D00025EAE5755D1B002D40F35681102D40F353
:1045E0006D8226984FF01008431CA14AA5F11101D5
:1045F0004444072BC6F80090C6F804800E92279416
:104600002693C1F3001C00F34F840836103D102D93
:1046100040F35782BCF1000F0FD001331034072B49
:10462000C6F80090C6F804802794269300F38C8483
:104630000836103D102D40F3448221460C9C12E0B8
:1046400006F1080001331031103D072BC0F800902F
:10465000C0F80480269327911BDC00F10806103D6A
:10466000102D40F30D8401331031072BC6F8009054
:10467000C6F8048027912693E2DD2046594625AAF4
:1046800003F056F800287FF460AA2799269B32A8E9
:10469000D8E72046594625AA03F04AF800287FF4B7
:1046A00054AA32AE2799269BD9E70A9C32AF0E94C2
:1046B000FFF7AEB90C98594625AA03F039F800283F
:1046C0007FF443AA279C32AEFFF7E8BB119F013F5E
:1046D000002F7FF72FAD102F7FF7A8AE119B4FF063
:1046E000100801356249123B4444072DC6F800907A
:1046F000C6F804800A9127942695C3F3001300F3AB
:10470000B1830836103F102F7FF792AE7BB1013591
:104710001034072DC6F80090C6F80480279426951B
:1047200000F3B6830836103F102F7FF781AE224684
:104730000C9C10E0083601351032103F072DC6F8EA
:104740000090C6F80480279226951ADC0836103FA0
:10475000102F40F35F8301351032072DC6F800900B
:10476000C6F8048027922695E4DD2046594625AAFE
:1047700002F0DEFF00287FF4E8A9279A269D32AEDA
:10478000D9E72046594625AA02F0D2FF00287FF437
:10479000DCA932AE279A269DD9E73549269B0A9196
:1047A00001330A9F6419072B37607560279426939D
:1047B0007FF723ACC9E40C98594625AA02F0B8FF4C
:1047C00000287FF4C2A932AE279C269B39E40DF164
:1047D000C70C0B966646204629460A22002303F0A2
:1047E00025FB30323270204629460A22002303F08E
:1047F0001DFB04460D463746013E54EA0500EAD14A
:1048000008990B9ECB1B0E93FFF702B90C985946E3
:1048100025AA02F08DFF00287FF497A932AE279CCD
:10482000269B23E4109D2B68291DDD171A461C4684
:104830002B46002A73F100001091BFF6CBA82D2261
:10484000644265EB45058DF873200123FFF7C3B87B
:1048500010990D1D0C6810950025FFF7A1B9109C4B
:104860002568201D10902C460025FFF722BA00BFB6
:104870001C8B00080C98594625AA02F059FF002805
:104880007FF463A9279C32AE1E9B11981599834231
:104890000F4470DB099AD1076DD40A9D119AED1B64
:1048A000D31AAB42B8BF1D46002D0ADD2699641904
:1048B000481C0728376075602794269000F35D83B5
:1048C000083625EAE5755D1B002D7FF797AB102DA7
:1048D0007FF763AF269A1027531C8849A5F111086A
:1048E000E419072BC6F8009077600A912794269365
:1048F000C8F3001800F335830836103D102D7FF7FC
:104900004FAFB8F1000F0ED001331034072BC6F8AB
:10491000009077602794269300F34E830836103D6D
:10492000102D7FF73DAFDDF830800FE00836431CD7
:104930001034103D072BC6F800907760269327941B
:1049400028DC0836103D102D7FF72AAF581C103494
:104950000728C6F80090776027942690E6DD404649
:10496000594625AA02F0E4FE00287FF4EEA8279C11
:10497000269832AEDBE726981899421C64181898DE
:104980001499072A316070602794269200F3B6824A
:10499000083682E74046594625AA02F0C9FE00289B
:1049A0007FF4D3A832AE279C269BCBE70C985946C0
:1049B00025AA0693CDF81CC002F0BAFE069BDDF8CE
:1049C0001CC000287FF4C1A832AE279C269AD3E4ED
:1049D000099AD2073FF583AB37600120FFF7A3BBED
:1049E0000C98594625AA069302F0A2FE069B0028C1
:1049F0007FF4ABA832AE279C269ACEE40C98594699
:104A000025AA02F095FE00287FF49FA8279C269DEA
:104A100032AEFFF76DBB0C98594625AA02F088FE0E
:104A200000287FF492A8279C269D32AEFFF76CBB2E
:104A30000A9F0E9732AFFEF7EBBF0C98594625AA96
:104A400002F076FE00287FF480A8279C32AEFFF7A4
:104A500049BA02F009FE002840F0E4800327099AD1
:104A6000274B0B97274F22F080010324B8F1470F03
:104A7000D8BF1F46129009919DF873300E9415907F
:104A8000FEF7D1BF09994B0640F1B281109A01237C
:104A9000111D148800251091FFF782B8099FF806B0
:104AA00040F1AB81109C0F9A2168271D10970A6076
:104AB000FEF7B2BE9AF80080FEF7E5BE0F4A269BCD
:104AC0000E925A1C0E996419072A86E82200279430
:104AD00026923FF7CFAE0836D6E60849269A0A91C5
:104AE000FFF770BA0C98594625AA02F021FE00285B
:104AF0007FF42BA8279C32AEFFF7ABBB1C8B0008C2
:104B0000E08A0008E48A00082699B74B481C013463
:104B100001210728336071602794269000F34981B2
:104B200008362AB9119818B9099BD8077FF566AAE3
:104B300026981899431C641818981499072B31600B
:104B400070602794269300F3C7820836C2F10008EC
:104B5000B8F1000F40F37A81B8F1100F40F3DA8119
:104B600010250133A8F11102A0486419C2F3001105
:104B7000072BC6F8009075600A90279426930E9133
:104B800000F3DA820836A8F11008B8F1100F40F3EC
:104B9000C3810E9A82B101331034072BC6F80090FE
:104BA00075602794269300F30F830836A8F1100848
:104BB000B8F1100F40F3B08120460C9C13E008368A
:104BC00001331030072BC6F800907560A8F110086B
:104BD0002790269300F3FC800836A8F11008B8F15E
:104BE000100F40F3948201331030072BC6F8009069
:104BF000756027902693E2DD2046594625AA02F0EB
:104C000097FD00287EF4A1AF2798269B32AED7E708
:104C1000099C0AF1010A44F02007099792F80180E3
:104C2000FEF731BE0A98471C00F0CF80B8F1670F3D
:104C300000F04C82B8F1470F00F048820998002C30
:104C400040F480771397C0F26B8200211291B8F183
:104C5000660F00F00B82B8F1460F00F00782B8F142
:104C6000650F00F06282B8F1450F00F05E82DDF85A
:104C700028C002218DE802101EA81FAF20A90290B3
:104C800003972A46234604910C98CDF81CC000F0E7
:104C90007FFCB8F1670F0746DDF81CC002D0B8F101
:104CA000470F03D1099AD00740F1438207EB0C0369
:104CB000B8F1460F0B9300F0EE8128462146002202
:104CC0000023FEF761F900BB209A0B9C944240F24E
:104CD000D88213463021D04303F8011B2018A34289
:104CE000209300F001000FD028B151700B9A0133CE
:104CF0009342209308D00B9C184600F8011B597072
:104D0000431CA3422093F7D10B930B99B8F1670F83
:104D1000C7EB0103119300F06681B8F1470F00F073
:104D20006281B8F1660F40F0B8821E9A0A9C002A90
:104D300040F38882002C40F053820999C80700F1A3
:104D40004F8222EAE2730B930E9215921299002978
:104D500000F0438113982D2200218DF873200990D3
:104D60001291FEF761BE0C98594625AA02F0E0FCAC
:104D700000287EF4EAAE279C32AEFFF780BA0E9B85
:104D8000109523EAE3720B929DF873301594FEF7A9
:104D90004ABE0C984021FEF779F9CBF80000CBF819
:104DA0001000002800F072824026CBF81460FEF755
:104DB00026BD0C98594625AA02F0BAFC00287EF4BC
:104DC000C4AE1E9A279C32AEABE606220A9235E7A5
:104DD0002046594625AA02F0ABFC00287EF4B5AE69
:104DE00032AE2798269BF8E6188B00081C8B00082B
:104DF000109805680746FEF7B6BD109A0999136822
:104E00000F9F101D11F0400F109014BF1F801F60E6
:104E1000FEF702BD1446FFF70BBB02F059FC1294DB
:104E2000129C20EAE0720E900B929DF87330109560
:104E30001594FEF7F8BD0C98594625AA02F078FCA7
:104E400000287EF482AE279C269B32AE11995A1C14
:104E50006418072A37607160279426927FF7CDA8DF
:104E6000FFF773B90C98594625AA069302F060FC27
:104E7000069B00287EF469AE32AE279C269D41E455
:104E80000C461EE6A34C2799269A1B94FEF7F9BF01
:104E90000C98594625AA02F04BFC00287EF455AE2A
:104EA00032AE279C269D3EE40C98594625AACDF8A3
:104EB0001CC002F03DFCDDF81CC000287EF445AEAD
:104EC00032AE279C269BFFF7A1BB0C98594625AA1A
:104ED00002F02EFC00287EF438AE279C32AEFFF79D
:104EE00076BB0C98594625AA02F022FC00287EF4D5
:104EF0002CAE32AE279C269BFFF7DDB90C985946A5
:104F000025AA02F015FC00287EF41FAE1E9B279CEC
:104F100032AEC2E480490A9101330A994444072B16
:104F200086E802012794269385DC08368EE70C98E4
:104F3000594625AA02F0FCFB00287EF406AE32AEEC
:104F4000279C269BFFF7C9B90C98594625AA02F061
:104F5000EFFB00287EF4F9AD32AE279C269BFFF7CD
:104F600068BB0C98594625AA02F0E2FB00287EF4A3
:104F7000ECAD32AE279C269BBFE40C98594625AA7F
:104F800002F0D6FB00287EF4E0AD119E1E9F279C08
:104F9000F31B32AE95E40A9F1095062F28BF062713
:104FA00027EAE7710E970B915C4FFEF769BE594AED
:104FB000269B0992FFF7F6B80C98594625AA02F0ED
:104FC000B7FB00287EF4C1AD32AE279C269BA6E439
:104FD0002D238DF87330FEF705BE139C9DF87330BA
:104FE0000994FEF720BD1E9AD11C104602DB0A9CD4
:104FF000944228DAA8F10208431E002B1E938DF874
:105000008480C0F232812B228DF88520092B00F399
:105010009F80303330208DF886008DF8873022A9AC
:1050200021AA119B119C881A1918012C1A900E9113
:1050300040F310810E9C0023621C22EAE2700E9263
:105040000B90159382E611998A4252DB0999CB079E
:1050500000F1DF8022EAE2730B930E924FF06708B3
:1050600073E62D4B269A0A93FFF7D4B90A9F0320C3
:10507000009001971EA91FA820AF2A46234603903F
:10508000049702910C9800F083FA0A9ADDF828C080
:10509000831807460B933978302900F0A9801E98B1
:1050A0000B9A13180B9308E60A9B0A9A23EAE371FA
:1050B00012900B919DF8733010950E921590FEF79B
:1050C000B2BC0022A2460A92FEF7DFBB0A9F002F65
:1050D00008BF01270A97B1E50C98594625AA02F0A6
:1050E00027FB00287EF431AD1E9A279C269B32AE0A
:1050F0002CE5002A119BD4BFC2F102000120C01888
:1051000020EAE0740E900B944FF067081DE6044609
:1051100002E700BF2C8B00081C8B0008108B0008D6
:105120002D2204F10044129291E50A9B03F1010C37
:105130009FE5209C0B94E8E50C98594625AA02F0BF
:10514000F7FA00287EF401AD32AE279C269B1AE5C3
:1051500046F267650DF19200C6F2666585FB032491
:10516000DA17C2EBA40101EB8104A3EB440302466E
:1051700003F130001070501E09290B46EEDC30336D
:105180000DF19305D9B2854202F8011C7BD9AC1A06
:10519000E4070DF1850013460DD58DF886101346F2
:1051A0000DF1860013F8011B05E013F8014B481CB4
:1051B0004C7013F8011B4170411CAB42F5D142AC5D
:1051C000C2EB4401F6392BE70C98594625AA02F0A8
:1051D000AFFA00287EF4B9AC32AE279C269BE5E4FA
:1051E0000A9C601C111821EAE1730E910B93ACE547
:1051F0002846214600220023CDF81CC0FDF7C4FE3E
:10520000DDF81CC000287FF44AAFCCF101001E90ED
:1052100046E7501C20EAE0740E900B944FF06708AC
:1052200093E5109F109B3A681F1D002A9AF8018091
:105230000A921097A246BEF626AB4FF0FF340A94AE
:10524000FEF721BBB4B90998C10713D401210B9112
:105250000E917AE5099A12F001007FF4EBAE0E9BF5
:10526000159023EAE3710B9170E52D215B428DF8D7
:105270008510CBE60A9B9C1C24EAE4700E940B90EC
:1052800063E50B9241E50DF18601C9E60C9C0C200B
:1052900020604FF0FF30FEF763BC1E98ACE600BF05
:1052A0002DE9F04F03690C6983B09C42064600F378
:1052B0006B81E01C82008F18B5187B6868685A1CE7
:1052C000B0FBF2F501F114030193013C043706F140
:1052D0001408002D00F0BF804B69D8F8002098B268
:1052E0004FEA134C05FB00F005FB0CF303EB104CED
:1052F0001FFA8CFE93B280B21B1ACEEB12420198B9
:1053000002EB234E1FFA83F901F1180249EA0E4914
:10531000381A06F11803974243F8049CC0F3800042
:105320004FEA1C4C4FEA2E4E72D328B310681B680C
:1053300082B2000C05FB02C205FB00F01FFA83FCE1
:1053400000EB1240F44492B21FFA80FEC2EB0C0C48
:10535000CEEB134303EB2C4E1FFA8CF242EA0E4CB9
:1053600001F11C0206F11C03974243F804CC4FEAFA
:105370002E4E4FEA104C4BD3104650F804BBD3F8D6
:1053800000901FFA8BFA4FEA1B4B05FB0ACC05FB7A
:105390000BFB1FFA89FA0BEB1C4BD6441FFA8CFC53
:1053A0001FFA8BFACCEB0E0ECAEB194909EB2E4A09
:1053B0001FFA8EFC99464CEA0A4E49F804EBD2F8E3
:1053C00004C05A681FFA8CF305FB03FE4FEA1C4C1D
:1053D00005FB0CF30EEB1B4B03EB1B4C93B21FFABC
:1053E0008CFE03EB2A431FFA8BFBCBEB0303CEEBC4
:1053F000124202EB234E9AB24B4642EA0E49021D7C
:10540000974243F8049B4FEA1C4C4FEA2E4EB3D20E
:10541000201D06EB80035A68EAB9181D984519D279
:1054200050F8042CB2B9043BC8EB0300C21C50076F
:105430000DD5013C98450DD21A68043B3AB109E0FC
:105440001868043B30B91A68013C043B12B9013CAE
:105450009845F5D33461304601F06CFF0028C0F266
:105460008280019AD8F8001052F8040B1FFA81FCD0
:1054700083B2000CC3EB0C03C0EB114101EB2340E2
:105480001FFA83FE019B4EEA004CF91A0135434690
:105490000014974243F804CBC1F380014BD3B9B158
:1054A00052F804EB19681FFA8EF91FFA81FAC9EB5A
:1054B0000A094FEA1E4C4844CCEB114101EB204154
:1054C00080B240EA014043F8040B0814974232D3FB
:1054D0008246114651F8040BD3F800E01FFA80F918
:1054E0001FFA8EFB4FEA104CC9EB0B0B0BEB0A00BB
:1054F000CCEB1E4A0AEB204980B29E4640EA0940A6
:105500004EF8040B50685A6883B21FFA82FC000CF4
:10551000C3EB0C0303EB2943C0EB124202EB234025
:105520009AB242EA004A0A1D7346974243F804AB16
:105530004FEA204ACDD2211D06EB8103586890B96D
:105540001A1D98450ED252F8041C59B9043BC8EBF9
:105550000300C21C520713D5013C984502D21868BB
:10556000043B68B13461284603B0BDE8F08F1A6887
:10557000043B002AF6D11968013C043B0029F1D113
:10558000013C9845F3D3EDE70020EDE70000000073
:105590002DE9F04F016C9FB081462B9C92469B46B3
:1055A00051B1436C012202FA03F24B608A6001F0B0
:1055B0007BFB0020C9F84000BBF1000839DB00216B
:1055C000216000242246C7F6F074C7F6F07208EA9C
:1055D0000403934216D05046594600220023FDF79B
:1055E000D3FC00282BD02A9D2C9C01212960002C63
:1055F00000F0CF80A24A226002F1FF3840461FB07F
:10560000BDE8F08F2A9C42F20F752560BAF1000FB9
:1056100000F0A680DFF870822C9D002DEED098F867
:105620000340002C00F0088208F108012C9C216046
:10563000E4E728F0004801252560C346C1E71DAE18
:105640001CAF52460096019748465B4601F0ACFFFE
:10565000C8F30A520B90002A40F08C801C9F1D98C2
:105660006FF482613E188E42C0F218834FF60E45E9
:10567000CFF6FF75A81B06F2124208FA00F12AFACB
:1056800002F341EA0300FDF7A1F90124A1F1F87149
:10569000013E0C9400230022C3F6F873FDF758F87E
:1056A00071A3D3E90023FDF707FA71A3D3E900231F
:1056B000FDF750F8044630460D46FDF797F96EA306
:1056C000D3E90023FDF7F8F902460B4620462946A8
:1056D000FDF740F804460D46FDF788FC2946079083
:1056E000002220460023FDF759FC002840F0AC8240
:1056F000079C162C00F2A582624D524605EBC400B1
:105700005B4603C8FDF768FC002800F0CF82079ACB
:105710000024511E07911094BE1B013E00F1AB8284
:10572000002508960A9507980028C0F29B82089ADF
:105730000F901118002008910E90289C092C2BD84E
:10574000052C41F31E80231F28930025289A911EC3
:10575000032923D8DFE811F0250513052B032205C3
:10576000494B4A48C8F31308B8F1000F0CBF8046F4
:10577000984651E72BF07F4727F4700444F07F559B
:10578000A2F2FF360022504645F440111C9F0C92B5
:1057900080E7DFF8FC8031E70025289500242146CA
:1057A000C9F84440484601F059FA4FF0FF3301214F
:1057B00080460993C9F84000119329940D911D98D2
:1057C0000028C0F23C81079A0E2A00F338812D4D43
:1057D000299B05EBC200002BD0E90045CDE904452B
:1057E000C0F2E284DDE9042350465946FDF78EFA03
:1057F000FDF7FCFB0646FDF7F9F8DDE90423FDF7AC
:105800005BF902460B4650465946FCF7A1FF099B3F
:1058100006F13002C246012B04460D460AF8012B60
:1058200000F0958000230022C4F22403FDF744F920
:105830000022002304460D46FDF7A6FB002840F099
:10584000BE80099E08F1020708EB060BC7EB0B00B0
:10585000C20700F1C680CDF81880CDF82090DDE9B0
:1058600004894CE0AFF3008061436F63A787D23FA8
:10587000B3C8608B288AC63FFB799F501344D33F3F
:10588000198B0008688B0008488B00083C8B0008C7
:10589000188B0008FDF710F90022002304460D467E
:1058A000FDF772FB42464B46002840F075852046C6
:1058B0002946FDF72BFAFDF799FB0646FDF796F80A
:1058C00042464B46FDF7F8F802460B46204629466D
:1058D000FCF73EFF303600230022C4F2240307F811
:1058E000016CFDF7E9F800220023BA4604460D4694
:1058F00007F10107FDF748FB002840F04D854246BF
:105900004B4620462946FDF701FAFDF76FFB064698
:10591000FDF76CF842464B46FDF7CEF802460B46C3
:1059200020462946FCF714FF0023002206F1300C24
:105930005F4507F801CCBA4604460D46C4F224037D
:1059400007F10107A6D1DDF81880DDF82090224686
:105950002B4620462946FCF7FDFE04460D4622460E
:10596000DDE904012B46FDF719FB40B9DDE904012F
:1059700022462B46FDF708FB08B3F0071FD51AF89F
:10598000017C6FEA08010AEB0102D10706D5392F25
:105990000AF1FF3310D113F8017C9A46392F0AF12E
:1059A000FF3309D1984500F0058513F8017C9A462C
:1059B000392F03F1FF33EED0781CC4B21C70484677
:1059C0000B9901F071F90024079B8AF800402A9D89
:1059D0002C9C581C2860002C3FF410AEC4F800A08A
:1059E0000CE6DDE9042320462946FDF78FF9FDF793
:1059F000FDFA0646FCF7FAFFDDE90423FDF75CF843
:105A000002460B4620462946FCF7A2FE303600230C
:105A10000022C4F2240307F8016CFDF74DF80022C0
:105A20000023BA4604460D4608F10307FDF7ACFA19
:105A300000283FF410AFC2E708F10301F6E50D9F1F
:105A4000002F00F01D81289C012C40F3DC83099974
:105A50000E9A481E8242C0F2B884151A099900298C
:105A6000C0F207860A9C099F0A9A4846D319089AE9
:105A70000121D7190A93089701F0EAF90C9064B153
:105A80000898002809DD0A990346A342A8BF2346C7
:105A9000CA1AC71A0A92E41A08970E9800281ADD43
:105AA0000D9B002B00F07E84002D10DD0C992A4602
:105AB000484601F03FFB0C900C990B9A484601F0C8
:105AC000D1F90B990646484601F0EEF80B960E996F
:105AD0004A1B40F092830121484601F0B9F90F9D1D
